:020000040800F2
:100000000050002021020008270200082B020008EF
:100010009D020008A1020008E9020008000000009B
:100020000000000000000000000000003103000894
:10003000350300080000000039030008AD16000871
:1000400055140008551400085514000855140008EC
:1000500055140008551400085514000855140008DC
:1000600055140008551400085514000855140008CC
:1000700055140008551400085514000855140008BC
:1000800055140008551400085514000855140008AC
:10009000551400085514000855140008551400089C
:1000A000551400085514000855140008551400088C
:1000B000551400085514000855140008551400087C
:1000C000551400085514000855140008551400086C
:1000D000551400085514000855140008551400085C
:1000E000411B0008551400085514000800000000CA
:1000F0000000000000000000000000000000000000
:1001000000000000000000005FF808F100B583B0B7
:1001100001F006F9304B314A1360314A1360314B1C
:10012000314A32498B4204D21168196004330432D7
:10013000F7E72A4B1A682E4B9A4200D0FEE7284B6D
:100140001A682C4B9A42F9D1234B2B4A13602B4A45
:1001500013602B4B02E000221A600433294A9342B9
:10016000F9D3254B1B6813B9244B1B6803B1FEE779
:1001700001F0E2F8694601A801F07EF8224C234B19
:10018000E41AA4100025AC4214DC214C214BE41AE3
:10019000A4100025AC4213DC0099019801F0D8FBB3
:1001A00005461D4C1D4BE41AA410002C0EDC2846FD
:1001B00001F03FF8154B53F8253098470135E2E739
:1001C000144B53F8253098470135E3E7013C134BB6
:1001D00053F824309847E8E7BABADECA0000002096
:1001E0009C0000200000002068260008A0000020DD
:1001F0007856341232547698A000002098010020DE
:10020000A00000209C010020740300087403000873
:1002100074030008740300087403000874030008E2
:1002200008B5FFF773FF00BEFEE71EF0040F0CBF1A
:10023000EFF30880EFF309807146414A10472DE93A
:10024000F04182B004468846124B5E6B9F6B9D6AFC
:100250001B6B13F0020F03D00E4BDB6A002B0CDB81
:100260000D4801F011F8CDF800803B463246294692
:10027000204601F065F800BEFEE74BF6AB6101F0E9
:10028000D9F80028ECD0034B4FF00042DA6202B0FC
:10029000BDE8F08100ED00E0E825000800BEFEE7C3
:1002A0001EF0040F0CBFEFF30880EFF309807146D6
:1002B000244A10472DE9F04182B004468846084B95
:1002C0005E6B9F6B9D6A074800F0DEFFCDF80080F3
:1002D0003B4632462946204601F032F800BEFEE792
:1002E00000ED00E0F82500081EF0040F0CBFEFF34E
:1002F0000880EFF309807146134A10472DE9F04159
:1003000082B004468846084B5E6B9F6B9D6A074827
:1003100000F0BAFFCDF800803B4632462946204621
:1003200001F00EF800BEFEE700ED00E00426000834
:1003300000BEFEE700BEFEE700BEFEE7704700001D
:0C0340003F020008B5020008FD020008A2
:10034C006826000800000020A00000206826000895
:10035C000000001000000010A00000209C010020F4
:08036C00000000100000001069
:1003740010B504460E4B18784FF47A73B3FBF0F3C0
:100384000C4A1068B0FBF3F000F08EF868B90F2C3B
:1003940001D901200AE0002221464FF0FF3000F08D
:1003A40043F8054B1C60002000E0012010BD00BF95
:1003B40004000020140000200800002008B5074AAB
:1003C400136843F010031360032000F01BF80020AF
:1003D400FFF7CEFF01F0BEFB002008BD0020024065
:1003E400034A1168034B1B780B441360704700BF2A
:1003F4005001002004000020014B1868704700BF22
:1004040050010020074AD36823F4E0631B041B0C4B
:10041400000200F4E060184340F0BF6040F4003094
:10042400D060704700ED00E030B4174BDB68C3F3D5
:100434000223C3F10704042C28BF04241D1D062D28
:1004440018D9033B4FF0FF3505FA04F421EA0401FF
:10045400994005FA03F322EA0303194300280BDB4E
:100464000901C9B200F1604000F5614080F8001351
:1004740030BC70470023E5E700F00F000901C9B262
:10048400024B1954F4E700BF00ED00E014ED00E066
:1004940000F01F02400901239340024A42F8203031
:1004A400704700BF00E100E00138B0F1807F0AD25C
:1004B400064B5860064AF02182F823100020986009
:1004C40007221A6070470120704700BF10E000E067
:1004D40000ED00E0042805D0054A136823F0040366
:1004E40013607047024A136843F0040313607047B3
:1004F40010E000E0704708B5FFF7FCFF08BD0000FE
:10050400F0B482B000263546A1E0002C59D0012C6D
:1005140000D1CE68FF2B68D88446FF2B68D8AC0086
:10052400DCF800200F27A74022EA070206FA04F4A9
:100534002243CCF800204A6812F0805F00F08680E5
:100544005E4A946944F001049461926902F00102E4
:100554000192019AAC08A71C594A52F8272005F0C9
:100564000307BF004FF00F0C0CFA07FC22EA0C0C37
:10057400544A904242D002F5806290427FD002F504
:10058400806290427DD002F58062904234D0042291
:1005940035E04D4FBC4214D00BD94C4FBC4210D067
:1005A40007F58037BC420CD0A7F58017BC42B1D107
:1005B40007E0A7F58017BC4203D007F58037BC429B
:1005C400A8D18C687CB1012C08D042610826A1E72F
:1005D400CE6808369EE7CE680C369BE70261082693
:1005E40098E7002696E7042694E700F1040C94E7C4
:1005F400A5F10804A40093E7032200E00022BA4016
:1006040042EA0C0202342E4F47F824204A6812F4BE
:10061400803F38D02E4C22681A4322604A6812F474
:10062400003F36D02A4C62681A4362604A6812F46A
:10063400801F34D0264CA2681A43A2604A6812F480
:10064400001F32D0224CE2681343E36001350F2DC2
:1006540031D80122AA400B6813409A42F6D14C6863
:10066400122CB8D095D8022CB2D07FF64EAF032C02
:10067400B7D0112C7FF44EAFCE6804364AE701227E
:10068400BDE70222BBE7124C226822EA0302226081
:10069400C4E70F4C626822EA03026260C6E70C4CAE
:1006A400A26822EA0302A260C8E7094CE26822EACF
:1006B4000303E360CAE702B0F0BC704700100240D5
:1006C400000001400008014000002110000031102A
:1006D4000004014012B909040161704701617047C7
:1006E40082B0084B1B68084AA2FB03235B0A00FB89
:1006F40003F0019000BF019B5A1E0192002BF9D117
:1007040002B0704714000020D34D621070B582B05F
:100714000446036813F0010F2CD0AB4B5B6803F065
:100724000C03042B1DD0A84B5B6803F00C03082BAF
:1007340012D06368B3F5803F41D0002B55D103F14B
:10074400804303F504331A6822F480321A601A686D
:1007540022F480221A6037E09B4B5B6813F4803FDD
:10076400E7D0994B1B6813F4003F03D06368002B58
:1007740000F0AE81236813F0020F76D0924B5B68D1
:1007840013F00C0F5FD0904B5B6803F00C03082B45
:1007940054D02369002B00F08A808C4B01221A600C
:1007A400FFF72AFE0546884B1B6813F0020F75D12C
:1007B400FFF722FE401B0228F5D903208BE1824A71
:1007C400136843F480331360636843B3FFF714FE84
:1007D40005467D4B1B6813F4003FCBD1FFF70CFE9D
:1007E400401B6428F5D9032075E1B3F5A02F09D087
:1007F400754B1A6822F480321A601A6822F4802237
:100804001A60E1E703F18043A3F53C331A6842F42C
:1008140080221A601A6842F480321A60D4E7FFF723
:10082400EBFD0546684B1B6813F4003FA2D0FFF7AD
:10083400E3FD401B6428F5D903204CE1624B5B685F
:1008440013F4803FA5D1604B1B6813F0020F04D052
:100854002369012B01D001203DE15B4A136823F099
:10086400F803616943EAC1031360236813F0080FB6
:1008740032D0A369002B5BD0554B01221A60FFF7DD
:10088400BBFD0546504B5B6A13F0020F21D1FFF705
:10089400B3FD401B0228F5D903201CE14A4A136822
:1008A40023F0F803616943EAC1031360DDE7474BB2
:1008B40000221A60FFF7A0FD0546434B1B6813F0A6
:1008C400020FD2D0FFF798FD401B0228F5D9032070
:1008D40001E10120FFF704FF236813F0040F00F087
:1008E4009780394BDB6913F0805F33D1364BDA697B
:1008F40042F08052DA61DB6903F080530193019B7B
:100904000125344B1B6813F4807F25D0E368012B49
:1009140036D0002B4CD103F1804303F504331A6A1B
:1009240022F001021A621A6A22F004021A622CE00E
:10093400274B00221A60FFF75FFD0546224B5B6AD6
:1009440013F0020FC8D0FFF757FD401B0228F5D95A
:100954000320C0E00025D4E71E4A136843F48073E3
:100964001360FFF749FD06461A4B1B6813F4807F9A
:10097400CCD1FFF741FD801B6428F5D90320AAE000
:10098400114A136A43F001031362E36873B3FFF778
:1009940033FD06460C4B1B6A13F0020F37D1FFF7E9
:1009A4002BFD801B41F288339842F3D9032092E057
:1009B400052B11D0044B1A6A22F001021A621A6A3A
:1009C40022F004021A62E0E70010024000004242F2
:1009D4008004424200700040414B1A6A42F0040213
:1009E4001A621A6A42F001021A62CEE7FFF704FDA6
:1009F40006463B4B1B6A13F0020F08D0FFF7FCFCC2
:100A0400801B41F288339842F3D9032063E0E5B9AF
:100A1400E369002B5ED0324A526802F00C02082AC5
:100A24005BD0022B17D02F4B00221A60FFF7E4FC97
:100A340004462B4B1B6813F0007F47D0FFF7DCFC08
:100A4400001B0228F5D9032045E0254AD36923F089
:100A54008053D361DCE7234B00221A60FFF7CCFC00
:100A640005461F4B1B6813F0007F06D0FFF7C4FC3C
:100A7400401B0228F5D903202DE0236AB3F5803FFB
:100A84001AD017494B6823F47413226A606A02432C
:100A940013434B60134B01221A60FFF7ADFC04466D
:100AA4000F4B1B6813F0007F0ED1FFF7A5FC001B52
:100AB4000228F5D903200EE0094A536823F40033D1
:100AC400A1680B435360DCE7002004E0002002E04F
:100AD400012000E0002002B070BD0120FBE700BF50
:100AE400001002406000424210B487B0164C94E8F3
:100AF4000F000DF1180C0CE90F00238AADF8043037
:100B0400124B5B6803F00C02082A1AD1C3F3834228
:100B1400624412F8102C13F4803F05D10C4800FBFA
:100B240002F007B010BC7047084B5B68C3F3404346
:100B3400634413F8143C074800FB02F0B0FBF3F0E5
:100B4400EFE70448EDE700BFB824000800100240B6
:100B540000093D0000127A00594B1B6803F007039B
:100B64008B420CD2564A136823F007030B431360DD
:100B7400136803F007038B4201D00120704770B55E
:100B8400036813F0020F06D04E4A536823F0F003B3
:100B94008468234353600C460546036813F0010F31
:100BA40052D04368012B23D0022B28D0454A126827
:100BB40012F0020F00F0828042494A6822F00302D8
:100BC40013434B60FFF718FC06466B68012B1DD0DE
:100BD400022B2AD03B4B5B6813F00C0F34D0FFF789
:100BE4000BFC801B41F288339842F3D9032064E064
:100BF400344A126812F4003FDED101205DE0314A2C
:100C0400126812F0007FD7D1012056E02D4B5B68AB
:100C140003F00C03042B17D0FFF7EEFB801B41F20B
:100C240088339842F2D9032047E0264B5B6803F0EF
:100C34000C03082B08D0FFF7DFFB801B41F288333D
:100C44009842F2D9032038E01D4B1B6803F00703D8
:100C5400A3420CD91A4A136823F0070323431360F1
:100C6400136803F00703A34201D0012025E02B6899
:100C740013F0040F06D0134A536823F4E063E968C1
:100C84000B4353602B6813F0080F07D00D4A5368C9
:100C940023F46053296943EAC1035360FFF724FF37
:100CA400084B5B68C3F30313074AD35CD840074B74
:100CB40018600020FFF75CFB002070BD0120FCE7FA
:100CC40000200240001002401426000814000020F6
:100CD400014B1868704700BF1400002070B4036A09
:100CE40023F001030362036A4268846924F07304F5
:100CF4000D6845EA040623F002048B6823430D4D76
:100D0400A84209D00B4DA8420DD0426086614A68C2
:100D14004263036270BC704723F00803CC6823432A
:100D240023F00403EEE722F440724C6914438A6909
:100D34002243EAE7002C014030B4036A23F48073B1
:100D44000362036A4268C46924F073040D682C4387
:100D540023F400738D6843EA05230F4DA84209D09C
:100D64000D4DA8420ED04260C4614A68C26303625A
:100D740030BC704723F40063CD6843EA052323F4B1
:100D84008063EDE722F440524D6942EA05128D6911
:100D940042EA0512E7E700BF002C014030B4036AC1
:100DA40023F480530362036A4468C26922F4E6426E
:100DB4000D6842EA052223F400538D6843EA0533A3
:100DC400074DA84206D04460C2614A6802640362C7
:100DD40030BC704724F480444D6944EA8514F2E73A
:100DE400002C014010B4036A046A24F00104046274
:100DF400846924F0F00444EA021223F00A030B434A
:100E04008261036210BC704710B4036A23F01003BC
:100E140003628469036A24F4704444EA023223F0CE
:100E2400A00343EA01138261036210BC7047836824
:100E340023F0700341F0070119438160704710B437
:100E4400846824F47F4442EA03230B4323438360EE
:100E540010BC7047022380F83D300268136843F0E9
:100E640001031360012380F83D3000207047704770
:100E740090F83C30012B7DD010B50446012380F856
:100E84003C30022380F83D300268936823F47F43AA
:100E940023F0770393600B68402B57D010D9702B45
:100EA4003ED01FD8502B47D0602B32D1CA68496836
:100EB4000068FFF7A9FF60212068FFF7B8FF28E06A
:100EC400102B4DD008D9202B4FD0302B21D13021DD
:100ED4000068FFF7ACFF1CE0DBB900210068FFF7F6
:100EE400A6FF16E0B3F5805F0ED0B3F5005F10D116
:100EF400CB684A6889680068FFF7A1FF2268936895
:100F040043F48043936004E00268936823F007038A
:100F14009360012384F83D30002084F83C0010BD28
:100F2400CB684A6889680068FFF789FF226893687C
:100F340043F077039360ECE7CA6849680068FFF7F9
:100F440051FF50212068FFF772FFE2E7CA68496841
:100F54000068FFF747FF40212068FFF768FFD8E7E4
:100F640010210068FFF763FFD3E720210068FFF733
:100F74005EFFCEE70220704703681B4A90420AD006
:100F8400B0F1804F07D0A2F59432904203D002F51D
:100F94008062904203D123F070034A681343124ADB
:100FA40090420AD0B0F1804F07D0A2F5943290421B
:100FB40003D002F58062904203D123F44073CA68DF
:100FC400134323F080034A69134303608B68C362AD
:100FD4000B688362044B984202D00123436170473B
:100FE4000B690363F9E700BF002C0140A8B110B5F9
:100FF400044690F83D305BB1022384F83D30211D56
:101004002068FFF7B9FF012384F83D30002010BDAC
:1010140080F83C3000F0E6FDEEE701207047A8B10F
:1010240010B5044690F83D305BB1022384F83D309E
:10103400211D2068FFF7A0FF012384F83D30002024
:1010440010BD80F83C30FFF712FFEEE70120704737
:1010540030B4036A23F010030362036A44688269AC
:1010640022F4E6420D6842EA052223F020038D684B
:1010740043EA05130E4DA84209D00D4DA8420ED0E7
:10108400446082614A688263036230BC704723F023
:101094008003CD6843EA051323F04003EDE724F40D
:1010A40040644D6944EA85048D6944EA8504E7E7B0
:1010B400002C014038B590F83C30012B66D00D4629
:1010C4000446012380F83C30022380F83D300C2A8A
:1010D4001AD8DFE802F00719191920191919341957
:1010E400191947000068FFF7F9FD2268936943F076
:1010F400080393612268936923F0040393612268CF
:10110400936929690B439361012384F83D300020DE
:1011140084F83C0038BD0068FFF79AFF22689369A1
:1011240043F4006393612268936923F480639361B9
:1011340022689369296943EA01239361E4E700681B
:10114400FFF7FAFD2268D36943F00803D3612268EC
:10115400D36923F00403D3612268D36929690B435B
:10116400D361D1E70068FFF719FE2268D36943F41D
:101174000063D3612268D36923F48063D361226856
:10118400D369296943EA0123D361BDE70220C1E79A
:1011940010B4012303FA01F4036A23EA040303628B
:1011A400036A8A401343036210BC704710B50446B7
:1011B40001220068FFF7ECFF2368074A934206D038
:1011C4002268136843F001031360002010BD5A6CB9
:1011D40042F400425A64F3E7002C014090F83C309A
:1011E400012B22D030B4012280F83C20022380F865
:1011F4003D300468636823F07003636004686368C7
:101204000D682B4363600468A36823F08003A36024
:101214000468A36849680B43A36080F83D20002359
:1012240080F83C30184630BC704702207047FEE717
:1012340008B503460C4A12685AB10B4A10680333C6
:1012440023F003030344094A934206D8064A136071
:1012540008BD054A06491160EFE700F0F9FC0C23CC
:1012640003604FF0FF30F3E7A4000020004C00209F
:101274009C01002001230360014B0B60704700BFF9
:101284000C0000200FB400B583B004AB53F8042B5A
:1012940001938021064800F019FD002803DD014672
:1012A400034800F037F803B05DF804EB04B070476E
:1012B400AC0000202DE9F04385B004460F464356A8
:1012C4000BB10E461EE0042528462146ABBE04465B
:1012D400384605B0BDE8F08314F9011B04AA1A448A
:1012E40002F8101C0133AB42F6D304AA13440022C3
:1012F40003F8102C4FF00408E94640464946ABBEBB
:101304008046761B002EE3D03546102E28BF1025CC
:101314000023E8E708B5FFF7CDFF08BD08B500F0E6
:1013240099F8024A024B9A6008BD00BF0000000809
:1013340000ED00E008B500F0B3F808BDF8B50446C8
:101344000D4617461E462748FFF79CFF216826488E
:10135400FFF798FF61682548FFF794FFA1682448C8
:10136400FFF790FFE1682348FFF78CFF21692248CB
:10137400FFF788FF61692148FFF784FFA1692048CE
:10138400FFF780FFE1691F48FFF77CFF1E48FFF766
:1013940079FF29461D48FFF775FF1D4CE16A1D487A
:1013A400FFF770FF216B1C48FFF76CFFE16B1B48D4
:1013B400FFF768FF15F0800F0AD115F4004F0CD128
:1013C4001748FFF75FFF06991648FFF75BFFF8BD64
:1013D40039461548FFF756FFEFE731461348FFF744
:1013E40051FFEDE7CC240008DC240008EC240008BD
:1013F400FC2400080C2500081C2500082C250008E6
:101404003C2500084C2500085C25000868250008D8
:1014140000ED00E0782500088825000898250008DC
:10142400C8250008D0250008A8250008B82500080C
:1014340083691A888A4201D0002070470268033AFF
:10144400012A03D8023383610120704700207047CA
:10145400FEE700000F4B1A6842F001021A60596857
:101464000D4A0A405A601A6822F0847222F48032CB
:101474001A601A6822F480221A605A6822F4FE0262
:101484005A604FF41F029A60044B4FF000629A6056
:10149400704700BF001002400000FFF800ED00E0BC
:1014A4001F4B5B6803F00C03042B14D0082B16D0DD
:1014B4001BB11C4B1C4A1A6002E01A4B1A4A1A60F0
:1014C400174B5B68C3F30313184AD15C154A1368BE
:1014D400CB4013607047134B134A1A60F0E7104A6D
:1014E40053685268C3F38343023312F4803F0AD033
:1014F4000B4A526812F4003F0BD00D4A02FB03F36F
:10150400084A1360DCE70A4A02FB03F3054A136046
:10151400D6E7054A02FB03F3024A1360D0E700BF93
:10152400001002401400002000127A001426000863
:1015340000093D0070B588B0284B9A6942F0040256
:101544009A619A6902F004020092009A9A6942F040
:1015540008029A619A6902F008020192019A9A6952
:1015640042F010029A619A6902F010020292029A01
:101574009A6942F020029A619B6903F02003039365
:10158400039B174D002220212846FFF7A3F84FF4B0
:1015940000530493134B05930024069404A91248A2
:1015A400FEF7AEFF0C23049302260596079604A9C2
:1015B4002846FEF7A5FF20230493012305930796ED
:1015C40004A92846FEF79CFF224621462820FEF760
:1015D4002BFF2820FEF75CFF08B070BD001002400E
:1015E400000801400000211000100140C0F3012355
:1015F400032B27D8DFE803F0020A121CC3B203EB63
:10160400830303EB8303980080B27047C0B2C0EB3E
:10161400401300EB8300C30098B27047C0B2C0EB24
:10162400401300EB830000EB8000C30098B27047C6
:10163400C0B2C0EB401300EB8300C0EB00104301C9
:1016440098B270470020704738B50C4640F6FC73DA
:1016540003EA1051118003EA9021518018409080D0
:1016640003EA1453D380C4F38900FFF7BFFF0A4D84
:101674002860C4F30930FFF7B9FF084C2060FEF777
:10168400BBFE23681844064B18601B682A68134481
:10169400044A136038BD00BF440100203C0100200F
:1016A400340100203801002008B5FEF799FEFEF74A
:1016B40022FFFEF7A1FE084B18601A68074B1B684F
:1016C4009A4208D3064B01221A70064B1968034A42
:1016D40013680B44136008BD30010020340000205F
:1016E4003000002018000020FEE7000000B58FB095
:1016F4003D483E4B036000234360836040F6FF7225
:10170400C260036180238361FFF770FC002842D12B
:101714000EA94FF4805341F8103D3348FFF7A8FB5E
:1017240000283DD13048FFF77AFC00283DD1002342
:101734000893099308A92C48FFF750FD002839D1D4
:1017440060230193002202920392059201A9264884
:10175400FFF7B0FC002832D10023029304220DEBE2
:1017640002012148FFF7A6FC70BB00230293082264
:1017740001A91D48FFF79EFC58BB002302930C22CD
:1017840001A91948FFF796FC40BB174800F040FA3E
:101794000FB05DF804FB40F205111548FFF7A4FFF4
:1017A4004FF485711248FFF79FFF4FF4877110487B
:1017B400FFF79AFF40F215110D48FFF795FF4FF41C
:1017C4008F710B48FFF790FF4FF492710848FFF7B1
:1017D4008BFF4FF495710648FFF786FF4FF498711D
:1017E4000348FFF781FF00BF5801002000040040B8
:1017F4002426000808B50420FEF76CFEFFF768FAFB
:10180400064BA3FB00308009FEF74EFE00B908BD6D
:1018140040F269110248FFF767FF00BFD34D621021
:101824002426000800B591B00223069301220A92EF
:1018340010220B920D9300230E934FF460130F9319
:1018440006A8FEF763FF08BB0F2301930221029150
:10185400002303934FF480620492059301A8FFF7D9
:101864007BF9B8B9FFF734FA0C4BA3FB00308009BD
:10187400FEF71AFE0420FEF72DFE002211464FF05B
:10188400FF30FEF7D1FD11B05DF804FBDE21044802
:10189400FFF72AFFEA210248FFF726FFD34D621023
:1018A4002426000810B588B00446602301930388F9
:1018B400029300220392059201A92248FFF7FAFB42
:1018C40058BB6388029304220DEB02011D48FFF705
:1018D400F1FB38BBA3880293082201A91948FFF73A
:1018E400E9FB20BBE38802930C2201A91548FFF70A
:1018F400E1FB08BB134C00212046FFF757FC0421F1
:101904002046FFF753FC08212046FFF74FFC0C212B
:101914002046FFF74BFC08B010BD40F277110A488F
:10192400FFF7E2FE40F27D110748FFF7DDFE40F2CB
:1019340083110548FFF7D8FE40F289110248FFF7EA
:10194400D3FE00BF580100202426000830B587B01C
:10195400FEF734FDFFF766FFFFF7ECFDFFF7C6FE69
:10196400FFF748FF6A4C2046FFF774FA002120462F
:10197400FFF71CFC04212046FFF718FC0821204631
:10198400FFF714FC0C212046FFF710FC00230493FE
:10199400059302930393009301935E4B1A785E4B75
:1019A40053F82240ADE0FEF727FD5C4B1B689842DC
:1019B40015D9BDF80830ADF81030BDF80A30ADF8CF
:1019C4001230BDF80C30ADF81430BDF80E30ADF85F
:1019D4001630534B1A68534B1A60002565E0BDF866
:1019E4000030BDF810201344ADF81030BDF80230BB
:1019F400BDF812201344ADF81230BDF80430BDF820
:101A040014201344ADF81430BDF80630BDF8162088
:101A14001344ADF81630444B0A221A6045E03D4B9E
:101A24001A783D4B53F8224002AAFFF70DFEBDF988
:101A34000830BDF910209B1A3C4A11683C4DA5FBA7
:101A4400010141F3CF0193FBF1F3ADF80030BDF98F
:101A54000A10BDF91230C91A1368A5FB030343F336
:101A6400CF0391FBF3F1ADF80210BDF90C10BDF9F1
:101A74001430C91A1068A5FB003040F3CF0091FB65
:101A8400F0F1ADF80410BDF90E30BDF916105B1A73
:101A94001268A5FB021242F3CF0293FBF2F3ADF8F6
:101AA4000630214B0A221A60012504A8FFF7FAFE2A
:101AB400204B00221A70204B1B78DBB2012B0ED076
:101AC4001C4B1B78002BF6D0002D7FF46CAF2068E4
:101AD400616801F00303032BA1D00834A4E70D4B84
:101AE4001B78032B0FD801330A4A1370094B1A7859
:101AF400094B53F822400F4B01221A700E4B00225F
:101B04001A700025DCE7034B00221A70EEE700BFD1
:101B140058010020400100201C0000203401002056
:101B24003801002034000020180000203C0100206F
:101B3400CDCCCCCC300000202C010020034B4FF442
:101B440000525A61024B01221A707047000401408E
:101B54002C01002000B583B0204B9A6942F00102A9
:101B64009A619B6903F001030193019B0320FEF733
:101B740049FC002211466FF00B00FEF755FC0022D1
:101B840011466FF00A00FEF74FFC002211466FF079
:101B94000900FEF749FC002211466FF00400FEF72D
:101BA40043FC002211466FF00300FEF73DFC0022C7
:101BB40011466FF00100FEF737FC002211464FF08A
:101BC400FF30FEF731FC064A536823F0E06343F02C
:101BD4000073536003B05DF804FB00BF00100240C3
:101BE400000001400268094B9A4200D0704782B05D
:101BF40003F50333DA6942F00202DA61DB6903F0C8
:101C040002030193019B02B0704700BF000400402F
:101C140002680C4B9A4200D0704710B584B0C023C0
:101C2400009302240194039469460748FEF768FC74
:101C3400032300930194039469460448FEF760FC6F
:101C440004B010BD0004004000080140000C014035
:101C5400014B1868704700BF3800002010B5431EC0
:101C64000A44914200D110BD11F8014B03F8014F11
:101C7400F7E730B5141E05469BB0184605DA8B23EA
:101C84004FF0FF302B601BB030BD4FF40273ADF842
:101C94000C300CBF234604F1FF33029305934FF637
:101CA400FF7300910491ADF80E3002461E9B694605
:101CB400284600F073F8431CBCBF8B232B60002C18
:101CC400E1D00022009B1A70DDE7000007B5009305
:101CD40013460A46014603480068FFF7CAFF03B0EB
:101CE4005DF804FB380000202DE9F0478E68824639
:101CF4009E420C469046994637D88A8912F4906FD2
:101D040031D00223256809696F1A656905EB450519
:101D140095FBF3F509F101033B449D4238BF1D4691
:101D2400530530D5294600F02BFB064650B90C2349
:101D34004FF0FF30CAF80030A38943F04003A38179
:101D4400BDE8F0873A462169FFF788FFA38923F4A9
:101D5400906343F08003A38126613E4426604E468F
:101D64006561ED1BA5604E4500D94E46324641469D
:101D7400206800F09FFAA36800209B1BA3602368DF
:101D84001E442660DCE72A4600F054FB0646002881
:101D9400E2D12169504600F0A7FAC8E72DE9F04FD7
:101DA4009DB003938B8980461D060C4616460FD5BD
:101DB4000B696BB9402100F0E3FA2060206128B977
:101DC4000C23C8F800304FF0FF30C7E040236361B4
:101DD4000023099320238DF8293030234FF0010B81
:101DE4008DF82A3037463D4615F8013B0BB1252BBB
:101DF4003ED1B7EB060A0BD0534632462146404645
:101E0400FFF772FF013000F0A480099B534409934B
:101E14003B78002B00F09D8000234FF0FF32CDE98A
:101E24000523049307938DF853301A932F46052204
:101E340017F8011B4F4800F02FFA049BD0B9D906BC
:101E440044BF20228DF853201A0744BF2B228DF85B
:101E540053202A782A2A15D02F4600200A25079ACB
:101E6400394611F8013B303B092B4DD9B8B10FE08D
:101E74002F46B8E73F4A3D46801A0BFA00F0184354
:101E84000490D3E7039A111D12680391002A01DB21
:101E9400079204E0524243F00203079204933B7812
:101EA4002E2B0CD17B782A2B33D1039B02371A1D9E
:101EB4001B680392002BB8BF4FF0FF3305932E4DE0
:101EC40003223978284600F0E7F938B14023401B53
:101ED40003FA00F0049B0137034304933978062284
:101EE40026487E1C8DF8281000F0D6F9002838D03A
:101EF400234B13BB039B073323F0070308330393DC
:101F0400099B4B4409936DE705FB023201200F4600
:101F1400A6E700230A25194601370593384610F829
:101F2400012B303A092A03D9002BC8D00591C6E702
:101F340005FB012101230746F0E703AB009322468A
:101F4400104B04A94046AFF30080B0F1FF3F814637
:101F5400D6D1A3895B063FF536AF09981DB0BDE81D
:101F6400F08F03AB00932246064B04A9404600F0D1
:101F740081F8EAE7342600083A2600083E260008DD
:101F840000000000ED1C00082DE9F04791461F46B3
:101F94008A680B6906469342B8BF1346C9F80030F5
:101FA40091F843200C46DDF8208012B10133C9F8C2
:101FB40000302368990642BFD9F800300233C9F8CB
:101FC4000030256815F0060507D104F1190AE36805
:101FD400D9F800209B1AAB4229DC94F843302268DC
:101FE400003318BF012392062ED404F1430239466C
:101FF4003046C047013021D02368E56803F006036A
:10200400042B18BF0025D9F800204FF0000908BFA1
:10201400AD1AA368226908BF25EAE5759342C4BFD7
:102024009B1AED181A344D451AD1002008E00123FB
:10203400524639463046C047013003D14FF0FF3095
:10204400BDE8F0870135C2E73020E11881F843008C
:102054005A1C94F845102244023382F84310C4E712
:102064000123224639463046C0470130E6D009F103
:102074000109D8E72DE9F04301F1430C0C46097E30
:1020840085B06E291746064698460C9A00F0B38030
:1020940022D8632936D00AD8002900F0B9805829FB
:1020A40000F0838004F1420584F8421032E0642990
:1020B40001D06929F6D120681368050603F10401EB
:1020C4002AD51B681160002B03DA2D225B4284F8A9
:1020D40043206F480A2239E0732900F09D8008D814
:1020E4006F2920D07029DDD1236843F020032360B9
:1020F40003E0752917D07829D4D17823654884F86A
:10210400453055E0136804F14205191D1B68116040
:1021140084F8423001238CE01B6810F0400F1160FA
:1021240018BF1BB2CFE713682568181D1060280676
:1021340001D51B6802E06806FBD51B886F2914BF14
:102144000A2208225248002184F843106568002DB1
:10215400A560C0F29580216821F004012160002B64
:102164003DD1002D40F08E806546082A0BD12368AE
:10217400DB0708D5236962689A42DEBF302305F87D
:10218400013C05F1FF35ACEB05032361CDF800807C
:102194003B4603AA21463046FFF7F6FE01304DD1F7
:1021A4004FF0FF3005B0BDE8F083394884F845109E
:1021B400136821681D1D1B6815600A060BD5CA0724
:1021C40044BF41F0200121601BB9226822F02002A3
:1021D40022601022B7E74D0648BF9BB2EFE7654681
:1021E400B3FBF2F102FB1133C35C05F8013D0B466E
:1021F4000029F5D1B9E713682568181D61691060D5
:1022040028061B6801D5196002E06A06FBD519800F
:10221400002365462361B9E71368191D11601D6821
:1022240062680021284600F037F808B1401B60605E
:1022340063682361002384F84330A7E723692A46AF
:1022440039463046C0470130AAD023689B0713D4CF
:10225400E068039B9842B8BF1846A3E701234A46A7
:1022640039463046C04701309AD00135E368039AB5
:102274009B1AAB42F2DCEBE7002504F11909F5E700
:10228400002BACD1037804F1420584F842306CE7AA
:10229400452600085626000810B5C9B202449042EB
:1022A400034601D1002303E01C7801308C42F6D1AF
:1022B400184610BD884210B501EB020307D8421E30
:1022C40099420AD011F8014B02F8014FF8E7834212
:1022D400F5D98118D21AD34200D110BD13F8014D9B
:1022E40001F8014DF7E7000038B50546002943D051
:1022F40051F8043C0C1F002BB8BFE41800F0D0F8D0
:102304001E4A1368104633B9636014602846BDE85A
:10231400384000F0C6B8A3420BD921686218934232
:1023240001BF1A685B685218226063600460EDE7BD
:1023340013465A680AB1A242FAD919685818A04239
:102344000BD120680144581882421960DED110680C
:102354005268014419605A60D8E702D90C232B60F3
:10236400D4E7206821188A4201BF1168526809180D
:10237400216062605C60C9E738BD00BF480100208D
:1023840070B5CD1C25F0030508350C2D38BF0C2580
:10239400002D064601DBA94203D90C23336000203B
:1023A40070BD00F07DF8214A1468214691B9204C93
:1023B40023681BB9304600F063F820602946304694
:1023C40000F05EF8431C24D10C233046336000F047
:1023D40068F8E4E70B685B1B18D40B2B0FD90B6070
:1023E400CC18CD50304600F05CF804F10B00231DEE
:1023F40020F00700C31AD3D05A42E250D0E74B680A
:102404008C4216BF636013600C46EBE70C464968C8
:10241400CCE7C41C24F00304A04205D0211A3046A2
:1024240000F02EF80130CFD02560DBE74801002012
:102434004C010020F8B5074614460E4621B9BDE804
:10244400F8401146FFF79CBF22B9FFF74DFF254620
:102454002846F8BD00F026F8A0420FD2214638469F
:10246400FFF78EFF05460028F2D031462246FFF7DB
:10247400F5FB31463846FFF737FFE9E73546E7E72E
:1024840038B50023054C054608462360FEF7D0FE08
:10249400431C02D1236803B12B6038BD54010020D2
:1024A4007047704751F8043C181F002BBCBF0B58F1
:1024B400C018704702030405060708090A0B0C0D2F
:1024C4000E0F101001020000537461636B206672DA
:1024D400616D653A0A000000205230203D2020251D
:1024E4003038580A00000000205231203D202025B9
:1024F4003038580A00000000205232203D202025A8
:102504003038580A00000000205233203D20202596
:102514003038580A0000000020523132203D202576
:102524003038580A00000000204C52203D2020255D
:102534003038580A00000000205043203D20202558
:102544003038580A0000000020505352203D202506
:102554003038580A000000004653522F4641523A80
:102564000A0000002043465352203D2020253038E5
:10257400580A00002048465352203D202025303878
:10258400580A00002044465352203D20202530386C
:10259400580A00002041465352203D20202530385F
:1025A400580A0000204D4D464152203D2025303828
:1025B400580A00002042464152203D202025303850
:1025C400580A00004D6973630A000000204C522F22
:1025D4004558435F52455455524E3D202530385896
:1025E4000A0000005B486172644661756C745D0AA0
:1025F400000000005B4275734661756C745D0A00EF
:102604005B55736167654661756C745D0A00000013
:10261400000000000000000001020304060708098E
:102624002E2E2F7372632F6D61696E2E630000006E
:10263400232D302B2000686C4C00656667454647A7
:10264400003031323334353637383941424344452A
:102654004600303132333435363738396162636499
:03266400656600A8
:102668007856341201FFFFFF10000000A800002078
:102678000000000000A24A040100000000EC01086C
:1026880000F0010800F4010800F8010800FC010846
:1026980001FFFFFF010000003C00002000000000D7
:1026A8000000000000000000000000000000000022
:1026B8000000000000000000000000000000000012
:1026C8000000000000000000000000000000000002
:1026D80000000000000000000000000000000000F2
:1026E80000000000000000000000000000000000E2
:1026F800000000000000000000000000325476983E
:040000050800010DE1
:00000001FF
